{
  "contractName": "Universitysystem",
  "abi": [
    {
      "constant": true,
      "inputs": [
        {
          "name": "",
          "type": "uint256"
        }
      ],
      "name": "reqmap",
      "outputs": [
        {
          "name": "by_",
          "type": "address"
        },
        {
          "name": "stdname",
          "type": "string"
        },
        {
          "name": "rollno",
          "type": "string"
        },
        {
          "name": "branch",
          "type": "string"
        },
        {
          "name": "to_",
          "type": "string"
        },
        {
          "name": "subject",
          "type": "string"
        },
        {
          "name": "briefdesc",
          "type": "string"
        },
        {
          "name": "count",
          "type": "uint256"
        },
        {
          "name": "finalised",
          "type": "bool"
        },
        {
          "name": "status",
          "type": "string"
        },
        {
          "name": "timestampbegin",
          "type": "uint256"
        },
        {
          "name": "timestampend",
          "type": "uint256"
        }
      ],
      "payable": false,
      "stateMutability": "view",
      "type": "function",
      "signature": "0x6930ac37"
    },
    {
      "constant": true,
      "inputs": [],
      "name": "owner",
      "outputs": [
        {
          "name": "",
          "type": "address"
        }
      ],
      "payable": false,
      "stateMutability": "view",
      "type": "function",
      "signature": "0x8da5cb5b"
    },
    {
      "constant": true,
      "inputs": [
        {
          "name": "",
          "type": "uint256"
        }
      ],
      "name": "transactions",
      "outputs": [
        {
          "name": "contract_",
          "type": "address"
        },
        {
          "name": "to_",
          "type": "address"
        },
        {
          "name": "amount_",
          "type": "uint256"
        },
        {
          "name": "failed_",
          "type": "bool"
        }
      ],
      "payable": false,
      "stateMutability": "view",
      "type": "function",
      "signature": "0x9ace38c2"
    },
    {
      "constant": true,
      "inputs": [
        {
          "name": "",
          "type": "bytes32"
        }
      ],
      "name": "myMapping",
      "outputs": [
        {
          "name": "fileName",
          "type": "string"
        },
        {
          "name": "timestamp",
          "type": "uint256"
        },
        {
          "name": "checkSum",
          "type": "bytes32"
        },
        {
          "name": "comments",
          "type": "string"
        },
        {
          "name": "isSet",
          "type": "bool"
        },
        {
          "name": "setBy",
          "type": "address"
        }
      ],
      "payable": false,
      "stateMutability": "view",
      "type": "function",
      "signature": "0xbba8b630"
    },
    {
      "constant": true,
      "inputs": [],
      "name": "reqcounter",
      "outputs": [
        {
          "name": "",
          "type": "uint256"
        }
      ],
      "payable": false,
      "stateMutability": "view",
      "type": "function",
      "signature": "0xbecd3fbb"
    },
    {
      "constant": true,
      "inputs": [
        {
          "name": "",
          "type": "address"
        },
        {
          "name": "",
          "type": "uint256"
        }
      ],
      "name": "transactionIndexesToSender",
      "outputs": [
        {
          "name": "",
          "type": "uint256"
        }
      ],
      "payable": false,
      "stateMutability": "view",
      "type": "function",
      "signature": "0xc4796437"
    },
    {
      "constant": true,
      "inputs": [],
      "name": "transferCount",
      "outputs": [
        {
          "name": "",
          "type": "uint256"
        }
      ],
      "payable": false,
      "stateMutability": "view",
      "type": "function",
      "signature": "0xe3d33fc9"
    },
    {
      "inputs": [],
      "payable": false,
      "stateMutability": "nonpayable",
      "type": "constructor",
      "signature": "constructor"
    },
    {
      "anonymous": false,
      "inputs": [
        {
          "indexed": false,
          "name": "by_",
          "type": "address"
        },
        {
          "indexed": false,
          "name": "success",
          "type": "bool"
        }
      ],
      "name": "RequestCreated",
      "type": "event",
      "signature": "0x919ad64d11ba1bab4996bdb04955fd83619567418d75fa41f848f546608eec14"
    },
    {
      "anonymous": false,
      "inputs": [
        {
          "indexed": false,
          "name": "from_",
          "type": "address"
        },
        {
          "indexed": false,
          "name": "to_",
          "type": "address"
        },
        {
          "indexed": false,
          "name": "amount_",
          "type": "uint256"
        },
        {
          "indexed": false,
          "name": "success",
          "type": "bool"
        }
      ],
      "name": "TransferSuccessful",
      "type": "event",
      "signature": "0xbd89d76852ec69a6bda0838fa65a7ed5caff5f00714cf3d7d853f2421d0c162f"
    },
    {
      "anonymous": false,
      "inputs": [
        {
          "indexed": false,
          "name": "from_",
          "type": "address"
        },
        {
          "indexed": false,
          "name": "to_",
          "type": "address"
        },
        {
          "indexed": false,
          "name": "amount_",
          "type": "uint256"
        },
        {
          "indexed": false,
          "name": "success",
          "type": "bool"
        }
      ],
      "name": "TransferFailed",
      "type": "event",
      "signature": "0x8bbddc8cb50f31d5dc8adaec627c2da3941128931d3d8834fb6eba0d40f89baa"
    },
    {
      "anonymous": false,
      "inputs": [
        {
          "indexed": false,
          "name": "_checksum",
          "type": "bytes32"
        },
        {
          "indexed": false,
          "name": "_filename",
          "type": "string"
        },
        {
          "indexed": true,
          "name": "_setBy",
          "type": "address"
        }
      ],
      "name": "NewEntry",
      "type": "event",
      "signature": "0x8894500778b4a5e556f0cae0842471eedc99b8a9df64046634b8a3bb3ae42102"
    },
    {
      "constant": true,
      "inputs": [],
      "name": "getterreq",
      "outputs": [
        {
          "name": "",
          "type": "uint256"
        }
      ],
      "payable": false,
      "stateMutability": "view",
      "type": "function",
      "signature": "0x7081095a"
    },
    {
      "constant": false,
      "inputs": [
        {
          "name": "id",
          "type": "uint256"
        },
        {
          "name": "by_",
          "type": "string"
        },
        {
          "name": "stat",
          "type": "string"
        },
        {
          "name": "reason",
          "type": "string"
        },
        {
          "name": "notes",
          "type": "string"
        },
        {
          "name": "transferto_",
          "type": "string"
        }
      ],
      "name": "requestResponse",
      "outputs": [],
      "payable": false,
      "stateMutability": "nonpayable",
      "type": "function",
      "signature": "0x086f9c79"
    },
    {
      "constant": false,
      "inputs": [
        {
          "name": "stdname",
          "type": "string"
        },
        {
          "name": "rollno",
          "type": "string"
        },
        {
          "name": "branch",
          "type": "string"
        },
        {
          "name": "sub",
          "type": "string"
        },
        {
          "name": "desc",
          "type": "string"
        },
        {
          "name": "to_",
          "type": "string"
        }
      ],
      "name": "createRequest",
      "outputs": [],
      "payable": false,
      "stateMutability": "nonpayable",
      "type": "function",
      "signature": "0x50e16c21"
    },
    {
      "constant": true,
      "inputs": [
        {
          "name": "id",
          "type": "uint256"
        }
      ],
      "name": "viewRequest",
      "outputs": [
        {
          "name": "stdname",
          "type": "string"
        },
        {
          "name": "rollno",
          "type": "string"
        },
        {
          "name": "branch",
          "type": "string"
        },
        {
          "name": "to_",
          "type": "string"
        },
        {
          "name": "lastapproved",
          "type": "string[]"
        },
        {
          "name": "subject",
          "type": "string"
        },
        {
          "name": "briefdesc",
          "type": "string"
        },
        {
          "name": "lastapprovedadd",
          "type": "address[]"
        },
        {
          "name": "finalised",
          "type": "bool"
        },
        {
          "name": "status",
          "type": "string"
        },
        {
          "name": "",
          "type": "uint256"
        },
        {
          "name": "",
          "type": "uint256"
        }
      ],
      "payable": false,
      "stateMutability": "view",
      "type": "function",
      "signature": "0x26e85250"
    },
    {
      "constant": true,
      "inputs": [],
      "name": "getTransactions",
      "outputs": [
        {
          "components": [
            {
              "name": "contract_",
              "type": "address"
            },
            {
              "name": "to_",
              "type": "address"
            },
            {
              "name": "amount_",
              "type": "uint256"
            },
            {
              "name": "failed_",
              "type": "bool"
            }
          ],
          "name": "",
          "type": "tuple[]"
        }
      ],
      "payable": false,
      "stateMutability": "view",
      "type": "function",
      "signature": "0x83920e90"
    },
    {
      "constant": false,
      "inputs": [],
      "name": "payFees",
      "outputs": [],
      "payable": true,
      "stateMutability": "payable",
      "type": "function",
      "signature": "0x62779e15"
    },
    {
      "constant": false,
      "inputs": [
        {
          "name": "_checksum",
          "type": "bytes32"
        },
        {
          "name": "_fileName",
          "type": "string"
        },
        {
          "name": "_comments",
          "type": "string"
        }
      ],
      "name": "addEntry",
      "outputs": [],
      "payable": false,
      "stateMutability": "nonpayable",
      "type": "function",
      "signature": "0x7f589519"
    },
    {
      "constant": true,
      "inputs": [
        {
          "name": "_checksum",
          "type": "bytes32"
        }
      ],
      "name": "entrySet",
      "outputs": [
        {
          "name": "",
          "type": "string"
        },
        {
          "name": "",
          "type": "uint256"
        },
        {
          "name": "",
          "type": "string"
        },
        {
          "name": "",
          "type": "address"
        }
      ],
      "payable": false,
      "stateMutability": "view",
      "type": "function",
      "signature": "0x0414be80"
    }
  ],
  "bytecode": "0x60806040526000600255600160035573cf01971db0cab2cbee4a8c21bb7638ac1fa1c38c600760006101000a81548173ffffffffffffffffffffffffffffffffffffffff021916908373ffffffffffffffffffffffffffffffffffffffff1602179055503480156200007057600080fd5b506040805190810160405280601d81526020017f556e6976657273697479205472616e73616374696f6e2053797374656d00000081525060009080519060200190620000be92919062000106565b5033600160006101000a81548173ffffffffffffffffffffffffffffffffffffffff021916908373ffffffffffffffffffffffffffffffffffffffff160217905550620001b5565b828054600181600116156101000203166002900490600052602060002090601f016020900481019282601f106200014957805160ff19168380011785556200017a565b828001600101855582156200017a579182015b82811115620001795782518255916020019190600101906200015c565b5b5090506200018991906200018d565b5090565b620001b291905b80821115620001ae57600081600090555060010162000194565b5090565b90565b612f9880620001c56000396000f3fe6080604052600436106100db576000357c0100000000000000000000000000000000000000000000000000000000900463ffffffff1680630414be80146100e0578063086f9c791461012057806326e852501461014957806350e16c211461019157806362779e15146101ba5780636930ac37146101c45780637081095a1461020c5780637f5895191461023757806383920e90146102605780638da5cb5b1461028b5780639ace38c2146102b6578063bba8b630146102f6578063becd3fbb14610338578063c479643714610363578063e3d33fc9146103a0575b600080fd5b3480156100ec57600080fd5b50610107600480360361010291908101906124c8565b6103cb565b6040516101179493929190612ca2565b60405180910390f35b34801561012c57600080fd5b50610147600480360361014291908101906126b2565b6105c3565b005b34801561015557600080fd5b50610170600480360361016b9190810190612689565b610bc9565b6040516101889c9b9a99989796959493929190612ba9565b60405180910390f35b34801561019d57600080fd5b506101b860048036036101b39190810190612570565b61120a565b005b6101c26114f1565b005b3480156101d057600080fd5b506101eb60048036036101e69190810190612689565b61155c565b6040516102039c9b9a99989796959493929190612a6c565b60405180910390f35b34801561021857600080fd5b50610221611a11565b60405161022e9190612d64565b60405180910390f35b34801561024357600080fd5b5061025e600480360361025991908101906124f1565b611a1b565b005b34801561026c57600080fd5b50610275611bf1565b6040516102829190612b57565b60405180910390f35b34801561029757600080fd5b506102a0611dce565b6040516102ad91906129e3565b60405180910390f35b3480156102c257600080fd5b506102dd60048036036102d89190810190612689565b611df4565b6040516102ed9493929190612a27565b60405180910390f35b34801561030257600080fd5b5061031d600480360361031891908101906124c8565b611e80565b60405161032f96959493929190612cf5565b60405180910390f35b34801561034457600080fd5b5061034d612019565b60405161035a9190612d64565b60405180910390f35b34801561036f57600080fd5b5061038a6004803603610385919081019061248c565b61201f565b6040516103979190612d64565b60405180910390f35b3480156103ac57600080fd5b506103b561204f565b6040516103c29190612d64565b60405180910390f35b60606000606060006008600086815260200190815260200160002060040160009054906101000a900460ff16151561040257600080fd5b600860008681526020019081526020016000206000016008600087815260200190815260200160002060010154600860008881526020019081526020016000206003016008600089815260200190815260200160002060040160019054906101000a900473ffffffffffffffffffffffffffffffffffffffff16838054600181600116156101000203166002900480601f0160208091040260200160405190810160405280929190818152602001828054600181600116156101000203166002900480156105115780601f106104e657610100808354040283529160200191610511565b820191906000526020600020905b8154815290600101906020018083116104f457829003601f168201915b50505050509350818054600181600116156101000203166002900480601f0160208091040260200160405190810160405280929190818152602001828054600181600116156101000203166002900480156105ad5780601f10610582576101008083540402835291602001916105ad565b820191906000526020600020905b81548152906001019060200180831161059057829003601f168201915b5050505050915093509350935093509193509193565b600060046000888152602001908152602001600020905060405160200180807f6163636570740000000000000000000000000000000000000000000000000000815250600601905060405160208183030381529060405280519060200120856040516020018082805190602001908083835b60208310151561065a5780518252602082019150602081019050602083039250610635565b6001836020036101000a0380198251168184511680821785525050505050509050019150506040516020818303038152906040528051906020012014156107c957600181600a0160006101000a81548160ff021916908315150217905550806005018690806001815401808255809150509060018203906000526020600020016000909192909190915090805190602001906106f7929190612055565b5050806008013390806001815401808255809150509060018203906000526020600020016000909192909190916101000a81548173ffffffffffffffffffffffffffffffffffffffff021916908373ffffffffffffffffffffffffffffffffffffffff16021790555050600181600901540181600901819055506040805190810160405280600681526020017f616363657074000000000000000000000000000000000000000000000000000081525081600b0190805190602001906107be929190612055565b504281600d01819055505b60405160200180807f72656a6563740000000000000000000000000000000000000000000000000000815250600601905060405160208183030381529060405280519060200120856040516020018082805190602001908083835b6020831015156108495780518252602082019150602081019050602083039250610824565b6001836020036101000a0380198251168184511680821785525050505050509050019150506040516020818303038152906040528051906020012014156109b857600181600a0160006101000a81548160ff021916908315150217905550806005018690806001815401808255809150509060018203906000526020600020016000909192909190915090805190602001906108e6929190612055565b5050806008013390806001815401808255809150509060018203906000526020600020016000909192909190916101000a81548173ffffffffffffffffffffffffffffffffffffffff021916908373ffffffffffffffffffffffffffffffffffffffff16021790555050600181600901540181600901819055506040805190810160405280600681526020017f72656a656374000000000000000000000000000000000000000000000000000081525081600b0190805190602001906109ad929190612055565b504281600d01819055505b60405160200180807f7472616e73666572000000000000000000000000000000000000000000000000815250600801905060405160208183030381529060405280519060200120856040516020018082805190602001908083835b602083101515610a385780518252602082019150602081019050602083039250610a13565b6001836020036101000a038019825116818451168082178552505050505050905001915050604051602081830303815290604052805190602001201415610bc057600081600a0160006101000a81548160ff02191690831515021790555080600501869080600181540180825580915050906001820390600052602060002001600090919290919091509080519060200190610ad5929190612055565b5050806008013390806001815401808255809150509060018203906000526020600020016000909192909190916101000a81548173ffffffffffffffffffffffffffffffffffffffff021916908373ffffffffffffffffffffffffffffffffffffffff16021790555050600181600901540181600901819055506040805190810160405280600881526020017f7472616e7366657200000000000000000000000000000000000000000000000081525081600b019080519060200190610b9c929190612055565b5081816004019080519060200190610bb5929190612055565b504281600d01819055505b50505050505050565b606080606080606080606080600060606000806000600460008f81526020019081526020016000209050806001018160020182600301836004018460050185600601866007018760080188600a0160009054906101000a900460ff1689600b018a600c01548b600d01548b8054600181600116156101000203166002900480601f016020809104026020016040519081016040528092919081815260200182805460018160011615610100020316600290048015610cc85780601f10610c9d57610100808354040283529160200191610cc8565b820191906000526020600020905b815481529060010190602001808311610cab57829003601f168201915b50505050509b508a8054600181600116156101000203166002900480601f016020809104026020016040519081016040528092919081815260200182805460018160011615610100020316600290048015610d645780601f10610d3957610100808354040283529160200191610d64565b820191906000526020600020905b815481529060010190602001808311610d4757829003601f168201915b50505050509a50898054600181600116156101000203166002900480601f016020809104026020016040519081016040528092919081815260200182805460018160011615610100020316600290048015610e005780601f10610dd557610100808354040283529160200191610e00565b820191906000526020600020905b815481529060010190602001808311610de357829003601f168201915b50505050509950888054600181600116156101000203166002900480601f016020809104026020016040519081016040528092919081815260200182805460018160011615610100020316600290048015610e9c5780601f10610e7157610100808354040283529160200191610e9c565b820191906000526020600020905b815481529060010190602001808311610e7f57829003601f168201915b5050505050985087805480602002602001604051908101604052809291908181526020016000905b82821015610f80578382906000526020600020018054600181600116156101000203166002900480601f016020809104026020016040519081016040528092919081815260200182805460018160011615610100020316600290048015610f6c5780601f10610f4157610100808354040283529160200191610f6c565b820191906000526020600020905b815481529060010190602001808311610f4f57829003601f168201915b505050505081526020019060010190610ec4565b505050509750868054600181600116156101000203166002900480601f01602080910402602001604051908101604052809291908181526020018280546001816001161561010002031660029004801561101b5780601f10610ff05761010080835404028352916020019161101b565b820191906000526020600020905b815481529060010190602001808311610ffe57829003601f168201915b50505050509650858054600181600116156101000203166002900480601f0160208091040260200160405190810160405280929190818152602001828054600181600116156101000203166002900480156110b75780601f1061108c576101008083540402835291602001916110b7565b820191906000526020600020905b81548152906001019060200180831161109a57829003601f168201915b505050505095508480548060200260200160405190810160405280929190818152602001828054801561113f57602002820191906000526020600020905b8160009054906101000a900473ffffffffffffffffffffffffffffffffffffffff1673ffffffffffffffffffffffffffffffffffffffff16815260200190600101908083116110f5575b50505050509450828054600181600116156101000203166002900480601f0160208091040260200160405190810160405280929190818152602001828054600181600116156101000203166002900480156111db5780601f106111b0576101008083540402835291602001916111db565b820191906000526020600020905b8154815290600101906020018083116111be57829003601f168201915b505050505092509c509c509c509c509c509c509c509c509c509c509c509c505091939597999b5091939597999b565b6112126120d5565b33816000019073ffffffffffffffffffffffffffffffffffffffff16908173ffffffffffffffffffffffffffffffffffffffff16815250508681602001819052508581604001819052508481606001819052506000816101200181815250508181608001819052506040805190810160405280600781526020017f6372656174656400000000000000000000000000000000000000000000000000815250816101600181905250838160c00181905250828160e00181905250600081610140019015159081151581525050428161018001818152505042816101a00181815250508060046000600354815260200190815260200160002060008201518160000160006101000a81548173ffffffffffffffffffffffffffffffffffffffff021916908373ffffffffffffffffffffffffffffffffffffffff160217905550602082015181600101908051906020019061136c92919061215d565b50604082015181600201908051906020019061138992919061215d565b5060608201518160030190805190602001906113a692919061215d565b5060808201518160040190805190602001906113c392919061215d565b5060a08201518160050190805190602001906113e09291906121dd565b5060c08201518160060190805190602001906113fd92919061215d565b5060e082015181600701908051906020019061141a92919061215d565b5061010082015181600801908051906020019061143892919061223d565b50610120820151816009015561014082015181600a0160006101000a81548160ff02191690831515021790555061016082015181600b01908051906020019061148292919061215d565b5061018082015181600c01556101a082015181600d01559050506003600081548092919060010191905055507f919ad64d11ba1bab4996bdb04955fd83619567418d75fa41f848f546608eec143360016040516114e09291906129fe565b60405180910390a150505050505050565b600760009054906101000a900473ffffffffffffffffffffffffffffffffffffffff1673ffffffffffffffffffffffffffffffffffffffff166108fc349081150290604051600060405180830381858888f19350505050158015611559573d6000803e3d6000fd5b50565b60046020528060005260406000206000915090508060000160009054906101000a900473ffffffffffffffffffffffffffffffffffffffff1690806001018054600181600116156101000203166002900480601f01602080910402602001604051908101604052809291908181526020018280546001816001161561010002031660029004801561162e5780601f106116035761010080835404028352916020019161162e565b820191906000526020600020905b81548152906001019060200180831161161157829003601f168201915b505050505090806002018054600181600116156101000203166002900480601f0160208091040260200160405190810160405280929190818152602001828054600181600116156101000203166002900480156116cc5780601f106116a1576101008083540402835291602001916116cc565b820191906000526020600020905b8154815290600101906020018083116116af57829003601f168201915b505050505090806003018054600181600116156101000203166002900480601f01602080910402602001604051908101604052809291908181526020018280546001816001161561010002031660029004801561176a5780601f1061173f5761010080835404028352916020019161176a565b820191906000526020600020905b81548152906001019060200180831161174d57829003601f168201915b505050505090806004018054600181600116156101000203166002900480601f0160208091040260200160405190810160405280929190818152602001828054600181600116156101000203166002900480156118085780601f106117dd57610100808354040283529160200191611808565b820191906000526020600020905b8154815290600101906020018083116117eb57829003601f168201915b505050505090806006018054600181600116156101000203166002900480601f0160208091040260200160405190810160405280929190818152602001828054600181600116156101000203166002900480156118a65780601f1061187b576101008083540402835291602001916118a6565b820191906000526020600020905b81548152906001019060200180831161188957829003601f168201915b505050505090806007018054600181600116156101000203166002900480601f0160208091040260200160405190810160405280929190818152602001828054600181600116156101000203166002900480156119445780601f1061191957610100808354040283529160200191611944565b820191906000526020600020905b81548152906001019060200180831161192757829003601f168201915b50505050509080600901549080600a0160009054906101000a900460ff169080600b018054600181600116156101000203166002900480601f0160208091040260200160405190810160405280929190818152602001828054600181600116156101000203166002900480156119fb5780601f106119d0576101008083540402835291602001916119fb565b820191906000526020600020905b8154815290600101906020018083116119de57829003601f168201915b50505050509080600c01549080600d015490508c565b6000600354905090565b6008600084815260200190815260200160002060040160009054906101000a900460ff16151515611a4b57600080fd5b600160009054906101000a900473ffffffffffffffffffffffffffffffffffffffff1673ffffffffffffffffffffffffffffffffffffffff163373ffffffffffffffffffffffffffffffffffffffff16141515611aa757600080fd5b60016008600085815260200190815260200160002060040160006101000a81548160ff02191690831515021790555081600860008581526020019081526020016000206000019080519060200190611b00929190612055565b5042600860008581526020019081526020016000206001018190555080600860008581526020019081526020016000206003019080519060200190611b46929190612055565b50336008600085815260200190815260200160002060040160016101000a81548173ffffffffffffffffffffffffffffffffffffffff021916908373ffffffffffffffffffffffffffffffffffffffff1602179055503373ffffffffffffffffffffffffffffffffffffffff167f8894500778b4a5e556f0cae0842471eedc99b8a9df64046634b8a3bb3ae421028484604051611be4929190612b79565b60405180910390a2505050565b60606000600560003373ffffffffffffffffffffffffffffffffffffffff1673ffffffffffffffffffffffffffffffffffffffff168152602001908152602001600020905060608180549050604051908082528060200260200182016040528015611c7657816020015b611c636122c7565b815260200190600190039081611c5b5790505b50905060008090505b8280549050811015611dc55760068382815481101515611c9b57fe5b9060005260206000200154815481101515611cb257fe5b9060005260206000209060040201608060405190810160405290816000820160009054906101000a900473ffffffffffffffffffffffffffffffffffffffff1673ffffffffffffffffffffffffffffffffffffffff1673ffffffffffffffffffffffffffffffffffffffff1681526020016001820160009054906101000a900473ffffffffffffffffffffffffffffffffffffffff1673ffffffffffffffffffffffffffffffffffffffff1673ffffffffffffffffffffffffffffffffffffffff168152602001600282015481526020016003820160009054906101000a900460ff1615151515815250508282815181101515611dab57fe5b906020019060200201819052508080600101915050611c7f565b50809250505090565b600160009054906101000a900473ffffffffffffffffffffffffffffffffffffffff1681565b600681815481101515611e0357fe5b90600052602060002090600402016000915090508060000160009054906101000a900473ffffffffffffffffffffffffffffffffffffffff16908060010160009054906101000a900473ffffffffffffffffffffffffffffffffffffffff16908060020154908060030160009054906101000a900460ff16905084565b6008602052806000526040600020600091509050806000018054600181600116156101000203166002900480601f016020809104026020016040519081016040528092919081815260200182805460018160011615610100020316600290048015611f2c5780601f10611f0157610100808354040283529160200191611f2c565b820191906000526020600020905b815481529060010190602001808311611f0f57829003601f168201915b505050505090806001015490806002015490806003018054600181600116156101000203166002900480601f016020809104026020016040519081016040528092919081815260200182805460018160011615610100020316600290048015611fd65780601f10611fab57610100808354040283529160200191611fd6565b820191906000526020600020905b815481529060010190602001808311611fb957829003601f168201915b5050505050908060040160009054906101000a900460ff16908060040160019054906101000a900473ffffffffffffffffffffffffffffffffffffffff16905086565b60035481565b60056020528160005260406000208181548110151561203a57fe5b90600052602060002001600091509150505481565b60025481565b828054600181600116156101000203166002900490600052602060002090601f016020900481019282601f1061209657805160ff19168380011785556120c4565b828001600101855582156120c4579182015b828111156120c35782518255916020019190600101906120a8565b5b5090506120d1919061231e565b5090565b6101c060405190810160405280600073ffffffffffffffffffffffffffffffffffffffff1681526020016060815260200160608152602001606081526020016060815260200160608152602001606081526020016060815260200160608152602001600081526020016000151581526020016060815260200160008152602001600081525090565b828054600181600116156101000203166002900490600052602060002090601f016020900481019282601f1061219e57805160ff19168380011785556121cc565b828001600101855582156121cc579182015b828111156121cb5782518255916020019190600101906121b0565b5b5090506121d9919061231e565b5090565b82805482825590600052602060002090810192821561222c579160200282015b8281111561222b57825182908051906020019061221b92919061215d565b50916020019190600101906121fd565b5b5090506122399190612343565b5090565b8280548282559060005260206000209081019282156122b6579160200282015b828111156122b55782518260006101000a81548173ffffffffffffffffffffffffffffffffffffffff021916908373ffffffffffffffffffffffffffffffffffffffff1602179055509160200191906001019061225d565b5b5090506122c3919061236f565b5090565b608060405190810160405280600073ffffffffffffffffffffffffffffffffffffffff168152602001600073ffffffffffffffffffffffffffffffffffffffff168152602001600081526020016000151581525090565b61234091905b8082111561233c576000816000905550600101612324565b5090565b90565b61236c91905b80821115612368576000818161235f91906123b2565b50600101612349565b5090565b90565b6123af91905b808211156123ab57600081816101000a81549073ffffffffffffffffffffffffffffffffffffffff021916905550600101612375565b5090565b90565b50805460018160011615610100020316600290046000825580601f106123d857506123f7565b601f0160209004906000526020600020908101906123f6919061231e565b5b50565b60006124068235612eaf565b905092915050565b600061241a8235612ec1565b905092915050565b600082601f830112151561243557600080fd5b813561244861244382612dac565b612d7f565b9150808252602083016020830185838301111561246457600080fd5b61246f838284612f0b565b50505092915050565b60006124848235612ecb565b905092915050565b6000806040838503121561249f57600080fd5b60006124ad858286016123fa565b92505060206124be85828601612478565b9150509250929050565b6000602082840312156124da57600080fd5b60006124e88482850161240e565b91505092915050565b60008060006060848603121561250657600080fd5b60006125148682870161240e565b935050602084013567ffffffffffffffff81111561253157600080fd5b61253d86828701612422565b925050604084013567ffffffffffffffff81111561255a57600080fd5b61256686828701612422565b9150509250925092565b60008060008060008060c0878903121561258957600080fd5b600087013567ffffffffffffffff8111156125a357600080fd5b6125af89828a01612422565b965050602087013567ffffffffffffffff8111156125cc57600080fd5b6125d889828a01612422565b955050604087013567ffffffffffffffff8111156125f557600080fd5b61260189828a01612422565b945050606087013567ffffffffffffffff81111561261e57600080fd5b61262a89828a01612422565b935050608087013567ffffffffffffffff81111561264757600080fd5b61265389828a01612422565b92505060a087013567ffffffffffffffff81111561267057600080fd5b61267c89828a01612422565b9150509295509295509295565b60006020828403121561269b57600080fd5b60006126a984828501612478565b91505092915050565b60008060008060008060c087890312156126cb57600080fd5b60006126d989828a01612478565b965050602087013567ffffffffffffffff8111156126f657600080fd5b61270289828a01612422565b955050604087013567ffffffffffffffff81111561271f57600080fd5b61272b89828a01612422565b945050606087013567ffffffffffffffff81111561274857600080fd5b61275489828a01612422565b935050608087013567ffffffffffffffff81111561277157600080fd5b61277d89828a01612422565b92505060a087013567ffffffffffffffff81111561279a57600080fd5b6127a689828a01612422565b9150509295509295509295565b6127bc81612ed5565b82525050565b6127cb81612e5d565b82525050565b60006127dc82612dff565b8084526020840193506127ee83612dd8565b60005b82811015612820576128048683516127c2565b61280d82612e36565b91506020860195506001810190506127f1565b50849250505092915050565b600061283782612e0a565b8084526020840193508360208202850161285085612de5565b60005b8481101561288957838303885261286b838351612949565b925061287682612e43565b9150602088019750600181019050612853565b508196508694505050505092915050565b60006128a582612e15565b8084526020840193506128b783612df2565b60005b828110156128e9576128cd86835161297f565b6128d682612e50565b91506080860195506001810190506128ba565b50849250505092915050565b6128fe81612e6f565b82525050565b61290d81612e7b565b82525050565b600061291e82612e2b565b808452612932816020860160208601612f1a565b61293b81612f4d565b602085010191505092915050565b600061295482612e20565b808452612968816020860160208601612f1a565b61297181612f4d565b602085010191505092915050565b60808201600082015161299560008501826127c2565b5060208201516129a860208501826127c2565b5060408201516129bb60408501826129d4565b5060608201516129ce60608501826128f5565b50505050565b6129dd81612ea5565b82525050565b60006020820190506129f860008301846127c2565b92915050565b6000604082019050612a1360008301856127b3565b612a2060208301846128f5565b9392505050565b6000608082019050612a3c60008301876127c2565b612a4960208301866127c2565b612a5660408301856129d4565b612a6360608301846128f5565b95945050505050565b600061018082019050612a82600083018f6127c2565b8181036020830152612a94818e612949565b90508181036040830152612aa8818d612949565b90508181036060830152612abc818c612949565b90508181036080830152612ad0818b612949565b905081810360a0830152612ae4818a612949565b905081810360c0830152612af88189612949565b9050612b0760e08301886129d4565b612b156101008301876128f5565b818103610120830152612b288186612949565b9050612b386101408301856129d4565b612b466101608301846129d4565b9d9c50505050505050505050505050565b60006020820190508181036000830152612b71818461289a565b905092915050565b6000604082019050612b8e6000830185612904565b8181036020830152612ba08184612913565b90509392505050565b6000610180820190508181036000830152612bc4818f612913565b90508181036020830152612bd8818e612913565b90508181036040830152612bec818d612913565b90508181036060830152612c00818c612913565b90508181036080830152612c14818b61282c565b905081810360a0830152612c28818a612913565b905081810360c0830152612c3c8189612913565b905081810360e0830152612c5081886127d1565b9050612c606101008301876128f5565b818103610120830152612c738186612913565b9050612c836101408301856129d4565b612c916101608301846129d4565b9d9c50505050505050505050505050565b60006080820190508181036000830152612cbc8187612913565b9050612ccb60208301866129d4565b8181036040830152612cdd8185612913565b9050612cec60608301846127c2565b95945050505050565b600060c0820190508181036000830152612d0f8189612949565b9050612d1e60208301886129d4565b612d2b6040830187612904565b8181036060830152612d3d8186612949565b9050612d4c60808301856128f5565b612d5960a08301846127c2565b979650505050505050565b6000602082019050612d7960008301846129d4565b92915050565b6000604051905081810181811067ffffffffffffffff82111715612da257600080fd5b8060405250919050565b600067ffffffffffffffff821115612dc357600080fd5b601f19601f8301169050602081019050919050565b6000602082019050919050565b6000602082019050919050565b6000602082019050919050565b600081519050919050565b600081519050919050565b600081519050919050565b600081519050919050565b600081519050919050565b6000602082019050919050565b6000602082019050919050565b6000602082019050919050565b6000612e6882612e85565b9050919050565b60008115159050919050565b6000819050919050565b600073ffffffffffffffffffffffffffffffffffffffff82169050919050565b6000819050919050565b6000612eba82612e85565b9050919050565b6000819050919050565b6000819050919050565b6000612ee082612ee7565b9050919050565b6000612ef282612ef9565b9050919050565b6000612f0482612e85565b9050919050565b82818337600083830152505050565b60005b83811015612f38578082015181840152602081019050612f1d565b83811115612f47576000848401525b50505050565b6000601f19601f830116905091905056fea265627a7a72305820206f60a4f4c359f84b1e98dd8ffa3ab9db4d21e7e327567b1924f49789ec60dc6c6578706572696d656e74616cf50037",
  "source": "pragma solidity >=0.4.20;\r\npragma experimental ABIEncoderV2;\r\ncontract Universitysystem {\r\n  string name;\r\n  address public owner;\r\n  uint public transferCount = 0;\r\n  struct Transfer{\r\n    address contract_;\r\n    address to_;\r\n    uint amount_;\r\n    bool failed_;\r\n  }\r\n\r\n  struct Request{\r\n    address by_;\r\n    string stdname;\r\n    string rollno;\r\n    string branch;\r\n    string to_;\r\n    string[] lastapproved;\r\n    string subject;\r\n    string briefdesc;\r\n    address[] lastapprovedadd;\r\n    uint count;\r\n    bool finalised;\r\n    string status;\r\n    // string notes;\r\n    // string reason;\r\n    uint timestampbegin;\r\n    uint timestampend;\r\n  }\r\n  uint public reqcounter = 1;\r\n  mapping(uint => Request) public reqmap;\r\n  function getterreq() external view returns(uint){\r\n    return reqcounter;\r\n  }\r\n  function requestResponse(uint id,string memory by_, string memory stat, string memory reason, string memory notes,string memory transferto_) public {\r\n    Request storage req = reqmap[id];\r\n    if(keccak256(abi.encodePacked((stat))) == keccak256(abi.encodePacked((\"accept\")))){\r\n      req.finalised = true;\r\n      req.lastapproved.push(by_);\r\n      req.lastapprovedadd.push(msg.sender);\r\n      req.count = req.count +1;\r\n      req.status = \"accept\";\r\n      // req.notes = notes;\r\n      // req.reason = reason;\r\n      req.timestampend = now;\r\n    }\r\n    if(keccak256(abi.encodePacked((stat))) == keccak256(abi.encodePacked((\"reject\")))){\r\n      req.finalised = true;\r\n      req.lastapproved.push(by_);\r\n      req.lastapprovedadd.push(msg.sender);\r\n      req.count = req.count +1;\r\n      req.status = \"reject\";\r\n      // req.notes = notes;\r\n      // req.reason = reason;\r\n      req.timestampend = now;\r\n    }\r\n    if(keccak256(abi.encodePacked((stat))) == keccak256(abi.encodePacked((\"transfer\")))){\r\n      req.finalised = false;\r\n      req.lastapproved.push(by_);\r\n      req.lastapprovedadd.push(msg.sender);\r\n      req.count = req.count +1;\r\n      req.status = \"transfer\";\r\n      // req.notes = notes;\r\n      // req.reason = reason;\r\n      req.to_ = transferto_;\r\n      req.timestampend = now;\r\n    }\r\n  }\r\n  event RequestCreated(address by_, bool success);\r\n  function createRequest(string memory stdname,string memory rollno,string memory branch, string  memory sub, string  memory desc,string memory to_) public {\r\n    Request memory newReq;\r\n    newReq.by_ = msg.sender;\r\n    newReq.stdname = stdname;\r\n    newReq.rollno = rollno;\r\n    newReq.branch = branch;\r\n    newReq.count = 0;\r\n    newReq.to_ = to_;\r\n    newReq.status = \"created\";\r\n    newReq.subject = sub;\r\n    newReq.briefdesc = desc;\r\n    newReq.finalised = false;\r\n    newReq.timestampbegin = now;\r\n    newReq.timestampend = now;\r\n    reqmap[reqcounter]  = newReq;\r\n    reqcounter ++;\r\n    emit RequestCreated(msg.sender, true);\r\n  }\r\n\r\n  function viewRequest(uint id) public view  returns (string memory stdname, string memory rollno, string memory branch, string memory to_,string[] memory lastapproved, string memory subject, string memory briefdesc, address[] memory lastapprovedadd, bool finalised, string memory status, uint, uint ) {\r\n    Request storage req = reqmap[id];\r\n    return (\r\n      req.stdname,\r\n      req.rollno,\r\n      req.branch,\r\n      req.to_,\r\n      req.lastapproved,\r\n      req.subject,\r\n      req.briefdesc,\r\n      req.lastapprovedadd,\r\n      req.finalised,\r\n      req.status,\r\n      // req.notes,\r\n      // req.reason\r\n      req.timestampbegin,\r\n      req.timestampend\r\n    );\r\n  }\r\n\r\n  mapping(address => uint[]) public transactionIndexesToSender;\r\n  Transfer[] public transactions;\r\n\r\n  function getTransactions() public view returns (Transfer[] memory) {\r\n        uint[] storage len = transactionIndexesToSender[msg.sender];\r\n        Transfer[] memory result = new Transfer[](len.length);\r\n        for(uint i = 0 ; i < len.length ; i++ ) result[i] = transactions[len[i]];\r\n        return result;\r\n  }\r\n  event TransferSuccessful(address payable from_, address payable to_, uint256 amount_, bool success);\r\n  event TransferFailed(address payable from_, address payable to_, uint256 amount_, bool success);\r\n  constructor() public {\r\n     name = \"University Transaction System\";\r\n     owner = msg.sender;\r\n  }\r\n  address payable to = address(uint160(0xcF01971DB0CAB2CBeE4A8C21BB7638aC1FA1c38c));\r\n  function payFees() public payable {\r\n      address(to).transfer(msg.value);\r\n  }\r\n\r\n\r\n\r\n  // Document Verification\r\n  struct MyNotaryEntry {\r\n        string fileName;\r\n        uint timestamp;\r\n        bytes32 checkSum;\r\n        string comments;\r\n        bool isSet;\r\n        address setBy;\r\n    }\r\n\r\n    mapping (bytes32 => MyNotaryEntry) public myMapping;\r\n\r\n    event NewEntry(bytes32 _checksum, string _filename, address indexed _setBy);\r\n\r\n    /**\r\n     * Example: 0x193C167E2B336B32356F17009C923C4CD33AC8E3F62BAD1384E8A049F77FD295, \"test\", \"test\"\r\n     * */\r\n    function addEntry(bytes32 _checksum, string memory _fileName, string memory _comments) public {\r\n        require(!myMapping[_checksum].isSet);\r\n        require(msg.sender == owner);\r\n        myMapping[_checksum].isSet = true;\r\n        myMapping[_checksum].fileName = _fileName;\r\n        myMapping[_checksum].timestamp = now;\r\n        myMapping[_checksum].comments = _comments;\r\n        myMapping[_checksum].setBy = msg.sender;\r\n\r\n        emit NewEntry(_checksum, _fileName, msg.sender);\r\n    }\r\n\r\n\r\n    function entrySet(bytes32 _checksum) public view returns(string memory, uint, string memory, address) {\r\n        require(myMapping[_checksum].isSet);\r\n        return (myMapping[_checksum].fileName, myMapping[_checksum].timestamp, myMapping[_checksum].comments, myMapping[_checksum].setBy);\r\n    }\r\n\r\n}\r\n",
  "sourcePath": "C:/Users/gaura/Desktop/Final Year Project/university/UniNext/src/contracts/Universitysystem.sol",
  "compiler": {
    "name": "solc",
    "version": "0.5.0+commit.1d4f565a.Emscripten.clang"
  },
  "schemaVersion": "3.0.2",
  "updatedAt": "2020-05-27T08:35:38.347Z",
  "devdoc": {
    "methods": {}
  },
  "userdoc": {
    "methods": {
      "addEntry(bytes32,string,string)": {
        "notice": "Example: 0x193C167E2B336B32356F17009C923C4CD33AC8E3F62BAD1384E8A049F77FD295, \"test\", \"test\"\r"
      }
    }
  }
}